:1000000000000420190200000102000003020000A9
:1000100005020000070200000902000000000000C5
:100020000000000000000000000000000B020000C3
:100030000D020000000000000F020000110200008D
:10004000130200001D0E00006116000013020000E4
:10005000130200001302000013020000130200004C
:100060001302000013020000130200006D0F0000D5
:10007000130200001302000013020000130200002C
:10008000130200001302000013020000130200001C
:10009000A50F00001302000013020000130200006D
:1000A00013020000130200001302000013020000FC
:1000B0001302000013020000000000000000000016
:1000C00013020000130200001302000013020000DC
:1000D00013020000130200001302000013020000CC
:1000E00013020000130200001302000000000000D1
:1000F00000000000130200000000000013020000D6
:1001000000000000000000000000000000000000EF
:1001100000000000000000000000000000000000DF
:1001200000000000000000000000000000000000CF
:1001300000000000000000000000000000000000BF
:1001400000000000000000000000000000000000AF
:10015000000000000000000000000000000000009F
:10016000000000000000000000000000000000008F
:10017000000000000000000000000000000000007F
:10018000000000000000000000000000000000006F
:10019000000000000000000000000000000000005F
:1001A000000000000000000000000000000000004F
:1001B000000000000000000000000000000000003F
:1001C000000000000000000000000000000000002F
:1001D000000000000000000000000000000000001F
:1001E000000000000000000000000000000000000F
:1001F00000000000000000000000000000000000FF
:10020000FEE7FEE7FEE7FEE7FEE7FEE7FEE7FEE7C6
:10021000FEE7FEE700F002B8FFF7FCBF0A484FF028
:100220000701884385460948804709480949016014
:100230000948016841F470010160BFF34F8FBFF3BB
:100240006F8F00F00BB80000000004203113000095
:1002500008ED00E00000000088ED00E0334934487C
:100260000A1A02D0072291438D46324932480A1AAF
:1002700006D00722914381F30988022282F3148871
:100280002E482F492F4A00F03FF82F482F49304A77
:1002900000F03AF82F483049304A00F035F830483D
:1002A0003049314A00F030F830483149314A00F0E5
:1002B0002BF831483149324A00F026F831483249AA
:1002C000324A00F021F832483249002200F027F883
:1002D00031483249002200F022F831483149091AE8
:1002E00013F044FB1F482049884205D002680430BF
:1002F00003B4904703BCF7E700208646EC46002095
:100300000021294A9047FEE7884207D0521A05D0BB
:10031000037801300B700131013AF9D170478842FE
:1003200002D002700130FAE770470000000004209C
:1003300000E003200000042000000420648101008C
:100340000000002098010020AC030000AC03000076
:1003500080390100648101000000002000000020BD
:1003600080390100803901008039010080390100A5
:100370008039010080390100803901008039010095
:1003800064810100FC820100980100209801002096
:1003900098010020C41D0120C41D0120C41D01209E
:0C03A000C41D0120C43D0120C904000060
:1003AC0008B500F091F800220021012012F06DFD3B
:1003BC00034801F09FFA03F02FF80023184608BDFC
:1003CC008039010000BF704782B001900B468DF858
:1003DC00033000BF02B0704782B0019000BF02B082
:1003EC00704700BF704700BF704700BF704700BF29
:1003FC00704700BF704782B0019000BF02B07047D9
:10040C0000B583B0019011F031FB0346012B01D1F3
:10041C0000230FE006F054FD0346012B09D10DF02B
:10042C0009FA0346012B04D10022022101980DF098
:10043C0085FD0123184603B05DF804FB00B589B0B7
:10044C00019011F013FB0346012B01D1002311E0A5
:10045C00019B1B78022B0CD103AB00220221184606
:10046C000DF06CFD03AB1946019812F086FA0346A9
:10047C0000E00023184609B05DF804FB0023184681
:10048C00704701231846704700BF704700BF704784
:10049C0000BF7047BFF34F8F00BF064BDB6803F400
:1004AC00E0620449044B1343CB60BFF34F8F00BF92
:1004BC0000BFFDE700ED00E00400FA0508B5FFF70A
:1004CC006FFF0346184608BD08B54FF08043002265
:1004DC00C3F800214FF0804301221A6000BF4FF097
:1004EC008043D3F80031002BF9D000F061F900F013
:1004FC002BF801F009F800F095FC00F08BFA00F0F5
:10050C0013F900F009F800BF08BD20BF20BF00BFE1
:10051C00704708B5FFF7BEFF82B04FF08043D3F8A9
:10052C0040360193019B002B0BD104E04FF080432C
:10053C000122C3F878254FF08043D3F87835002B8F
:10054C00F4D000BF02B070474FF0A0434FF0806270
:10055C00C3F818254FF0A0434FF00062C3F81825DC
:10056C004FF0A0434FF08052C3F818254FF0A04332
:10057C004FF00052C3F818254FF0A0434FF08042C3
:10058C00C3F818254FF0A0434FF00042C3F81825CC
:10059C0000BF70474FF0A043D3F8043503F08063DD
:1005AC00002B06D04FF0A0434FF08062C3F80C250F
:1005BC0005E04FF0A0434FF08062C3F8082500BF60
:1005CC0070474FF0A043D3F8043503F00063002BC1
:1005DC0006D04FF0A0434FF00062C3F80C2505E0A5
:1005EC004FF0A0434FF00062C3F8082500BF7047DE
:1005FC004FF0A0434FF08052C3F8082500BF70475E
:10060C004FF0A0434FF08052C3F80C2500BF704749
:10061C004FF0A043D3F8043503F08053002B06D0E1
:10062C004FF0A0434FF08052C3F80C2505E04FF07B
:10063C00A0434FF08052C3F8082500BF70474FF01D
:10064C00A0434FF00052C3F8082500BF70474FF08D
:10065C00A0434FF00052C3F80C2500BF70474FF079
:10066C00A0434FF08042C3F8082500BF70474FF0FD
:10067C00A0434FF08042C3F80C2500BF70474FF0E9
:10068C00A0434FF00042C3F8082500BF70474FF05D
:10069C00A0434FF00042C3F80C2500BF704784B054
:1006AC00019000238DF80F304FF080531B6E029396
:1006BC0000238DF80F3010E09DF80F30DB00029A0C
:1006CC0022FA03F19DF80F30019A1344CAB21A7042
:1006DC009DF80F3001338DF80F309DF80F30032B40
:1006EC00EAD94FF080535B6E029300238DF80F30E4
:1006FC0011E09DF80F30DB00029A22FA03F19DF80D
:10070C000F300433019A1344CAB21A709DF80F309B
:10071C0001338DF80F309DF80F30032BE9D900BF52
:10072C0000BF04B07047000008B5202000F022F88C
:10073C00182000F01FF80E4B0022C3F800250C4BBC
:10074C002022C3F808250A4B1822C3F80C25084BA5
:10075C004FF0C862C3F82425054B4FF49052C3F8F0
:10076C000022034B0622C3F8002500BF08BD00BFC2
:10077C000030004084B00190019B1F2B05D84FF036
:10078C00A0430393019B029305E0084B0393019B49
:10079C0003F01F030293039B029A02F5E07240F2EE
:1007AC000C6143F8221000BF04B0704700030050E6
:1007BC0008B54FF0A0434FF40052C3F818254FF082
:1007CC00A0434FF48042C3F818254FF0A0434FF4D8
:1007DC000042C3F818254FF0A0434FF48032C3F801
:1007EC00182500F068F800BF08BD4FF0A0434FF487
:1007FC000052C3F8082500BF70474FF0A043D3F850
:10080C00043503F40053002B06D04FF0A0434FF4F3
:10081C000052C3F80C2505E04FF0A0434FF40052F2
:10082C00C3F8082500BF70474FF0A0434FF4804237
:10083C00C3F8082500BF70474FF0A0434FF4804227
:10084C00C3F80C2500BF70474FF0A043D3F8043514
:10085C0003F48043002B06D04FF0A0434FF48042AA
:10086C00C3F80C2505E04FF0A0434FF48042C3F8C9
:10087C00082500BF70474FF0A0434FF40042C3F867
:10088C00082500BF70474FF0A0434FF40042C3F857
:10089C000C2500BF70474FF0A0434FF48032C3F8D3
:1008AC00082500BF70474FF0A0434FF48032C3F8C7
:1008BC000C2500BF704708B5FFF7DDFFFFF7B4FF4D
:1008CC00FFF7E9FFFFF791FF00BF08BD00B583B04C
:1008DC00FFF7F1FF00238DF8073010E0FFF78DFFD5
:1008EC000023009302E0009B01330093009B084A15
:1008FC009342F8D99DF8073001338DF807309DF8F5
:10090C000730632BEAD900BF00BF03B05DF804FBCE
:10091C00FEFF010082B003468DF807309DF90730C9
:10092C00002B0CDB9DF8073003F01F0205499DF9E5
:10093C0007305B09012000FA02F241F8232000BFC6
:10094C0002B0704700E100E082B003468DF807303A
:10095C009DF90730002B13DB9DF8073003F01F02C5
:10096C0009499DF907305B09012000FA02F2203396
:10097C0041F82320BFF34F8F00BFBFF36F8F00BF31
:10098C0000BF02B0704700BF00E100E082B0034638
:10099C008DF807309DF90730002B0DDB9DF80730E3
:1009AC0003F01F0206499DF907305B09012000FA8C
:1009BC0002F2603341F8232000BF02B0704700BF41
:1009CC0000E100E082B0034600918DF807309DF9FC
:1009DC000730002B0ADB009BDAB20C499DF907307B
:1009EC005201D2B20B4483F800230BE0009BDAB225
:1009FC0007499DF8073003F00F03043B5201D2B2B4
:100A0C000B441A7600BF02B0704700BF00E100E053
:100A1C0000ED00E008B5264BD3F81435244B00222A
:100A2C00C3F81425224B4FF48472C3F81425204BC1
:100A3C00204AC3F818251E4B40F25B62C3F83825D8
:100A4C001B4B40F20312C3F83425194B1A4AC3F856
:100A5C003C25174B0022C3F82C25154B0122C3F85B
:100A6C003025134B0322C3F81025114B9622C3F8E3
:100A7C0044250F4B8E22C3F824250D4B0F4AC3F887
:100A8C001C250B4B0E4AC3F804250120FFF75CFF15
:100A9C00074B0A22C3F8042300210120FFF792FF21
:100AAC000120FFF773FF0120FFF734FF00BF08BDE3
:100ABC00001000407F0003025555550000D6BE893A
:100ACC00A801002082B00190024A019B136000BF74
:100ADC0002B070479801002082B00190024A019B3D
:100AEC00536000BF02B070479801002000B583B07E
:100AFC0003468DF807309DF80730184600F00EF9C4
:100B0C0003461A46074BC3F80825064A9DF80730DA
:100B1C00C2F85435044B03221A7200BF03B05DF8BF
:100B2C0004FB00BF0010004098010020044B012280
:100B3C00C3F8FC2F034B00221A7200BF704700BF92
:100B4C00001000409801002008B50C4B0D221A72C1
:100B5C000B4B0022C3F81021094B01221A6100BF74
:100B6C00074BD3F81031002BFAD0FFF784FEFFF7B8
:100B7C008EFD024B01221A7200BF08BD98010020A5
:100B8C000010004000B583B001900B46ADF8023068
:100B9C00104B04221A72BDF80230002B0FD0BDF896
:100BAC0002307F2B0BD8BDF80230DAB2094B5A74E5
:100BBC00BDF802301A460199074812F0DDF9074BCF
:100BCC00074AC3F80425034B05221A7200BF03B071
:100BDC005DF804FB98010020AA01002000100040E1
:100BEC00A801002008B50C4B06221A720B4B0022F0
:100BFC00C3F80021094B01221A6000BF074BD3F840
:100C0C000031002BFAD0FFF73AFDFFF73CFE024B08
:100C1C0007221A7200BF08BD980100200010004086
:100C2C00034B01229A60034B08221A7200BF7047D3
:100C3C00001000409801002008B50C4B09221A72D4
:100C4C000B4BD3F85035032B0ED0FFF77DFF084B21
:100C5C000022C3F80021064B01225A6000BF044B4E
:100C6C00D3F80031002BFAD000BF08BD980100204A
:100C7C000010004008B5064B01229A60FFF7FFFCFC
:100C8C00FFF701FE034B0A221A7200BF08BD00BF1A
:100C9C00001000409801002000B587B0039002912D
:100CAC00009313468DF80730194B5B7C8DF8173089
:100CBC009DF81730002B27D09DF91730002B02DA46
:100CCC007F238DF817309DF817209DF807309A4236
:100CDC0003D99DF807308DF817309DF817301A4658
:100CEC000C49039812F048F9029B9DF817201A70D2
:100CFC00094BD3F80034012B0CBF01230023DBB2CA
:100D0C001A46099B1A7000E000BF07B05DF804FB9F
:100D1C0098010020AA0100200010004084B0034676
:100D2C008DF807309DF807300A2B07D89DF807304F
:100D3C000233DBB25B008DF80F3029E09DF80730F1
:100D4C000A2B0BD99DF80730242B07D89DF80730B8
:100D5C000333DBB25B008DF80F3019E09DF80730E0
:100D6C00272B0ED0272B10DC252B02D0262B04D0C2
:100D7C000BE002238DF80F300AE01A238DF80F30A8
:100D8C0006E050238DF80F3002E002238DF80F306F
:100D9C009DF80F30184604B07047000000B583B0C2
:100DAC00184BD3F804350193174BD3F80431002BAF
:100DBC0010D0154B01225A61144B1B68002B03D029
:100DCC00124B1B68019898470F4B0022C3F8042163
:100DDC00012313E00C4BD3F80C31002B0DD00B4B33
:100DEC005B68002B03D0094B5B6801989847064B56
:100DFC000022C3F80C21012300E00023184603B0A5
:100E0C005DF804FB00B00040001000409801002089
:100E1C0008B5FFF724FCFFF7C1FFFFF728FC00BF64
:100E2C0008BD000008B508220021264812F0DAF8A7
:100E3C00254B002283F80B23234B4FF400621A60DE
:100E4C004FF080430122DA6000BF4FF08043D3F8AB
:100E5C00183403F48033012BF7D01C4B0022C3F859
:100E6C0008254FF080430122C3F818254FF080432A
:100E7C0001229A6000BF4FF08043D3F8183403F47A
:100E8C008033002BF7D0114B0022C3F840210F4BBD
:100E9C004FF48032C3F804230C4B01221A600A4B26
:100EAC00002283F81423084B4FF480121A60084B6D
:100EBC000022C3F80021064B0122C3F8042300BF13
:100ECC0008BD00BF3002002000E100E000B000408F
:100EDC000040014082B00190024A019B136000BFA8
:100EEC0002B070473002002084B00190154BD3F84B
:100EFC0004350393039A019BD31A23F07F434FF6D7
:100F0C00FE72934206D8104B01221A600F4B01223D
:100F1C001A7114E0019A039BD31A23F07F43042B1C
:100F2C0006D8094B01221A60084B02221A7106E0FE
:100F3C00044A019BC2F84035044B00221A7100BFD1
:100F4C0004B0704700B00040004001403002002067
:100F5C00024BD3F804351846704700BF00B0004070
:100F6C0008B5FFF77CFB0A4BD3F84031002B0AD0B5
:100F7C00074B0022C3F84021064B1B68002B02D004
:100F8C00044B1B689847FFF772FB00BF08BD00BFFE
:100F9C0000B000403002002008B5FFF760FB0A4BA0
:100FAC00D3F80031002B0AD0074B0022C3F80021E4
:100FBC00064B1B68002B02D0044B1B689847FFF7AD
:100FCC0056FB00BF08BD00BF0040014030020020AE
:100FDC0082B0164B1B680193154B1B680093019B49
:100FEC00082B1FD1009B052B1AD801A252F823F015
:100FFC0015100000191000001D1000002110000039
:10100C00251000002910000001230CE001230AE048
:10101C00012308E0012306E0012304E0012302E0A0
:10102C00012300E00023184602B070473001001085
:10103C003401001082B0164B1B680193154B1B68D2
:10104C000093019B082B1FD1009B052B1AD801A2E2
:10105C0052F823F0791000007D1000008110000080
:10106C0085100000891000008D10000001230CE099
:10107C0001230AE0012308E0012306E0012304E038
:10108C00012302E0012300E00023184602B0704760
:10109C00300100103401001082B0164B1B68019314
:1010AC00154B1B680093019B082B1FD1009B052B34
:1010BC001AD801A252F823F0DD100000E110000054
:1010CC00E5100000E9100000ED100000F110000028
:1010DC0001230CE000230AE0002308E0002306E0D3
:1010EC00002304E0002302E0002300E00023184664
:1010FC0002B07047300100103401001082B0164B62
:10110C001B680193154B1B680093019B082B1FD187
:10111C00009B052B1AD801A252F823F041110000B4
:10112C0045110000491100004D1100005111000043
:10113C005511000001230CE000230AE0002308E015
:10114C00002306E0002304E0002302E0002300E07B
:10115C000023184602B07047300100103401001013
:10116C0082B0164B1B680193154B1B680093019BB7
:10117C00082B1FD1009B052B1AD801A252F823F083
:10118C00A5110000A9110000AD110000B111000063
:10119C00B5110000B911000001230CE000230AE096
:1011AC00002308E0002306E0002304E0002302E013
:1011BC00002300E00023184602B0704730010010F5
:1011CC003401001082B0164B1B680193154B1B6841
:1011DC000093019B082B1FD1009B052B1AD801A251
:1011EC0052F823F0091200000D1200001112000039
:1011FC0015120000191200001D12000001230CE052
:10120C0000230AE0002308E0002306E0002304E0AA
:10121C00002302E0002300E00023184602B07047D0
:10122C00300100103401001082B0164B1B68019382
:10123C00154B1B680093019B082B1FD1009B052BA2
:10124C001AD801A252F823F06D120000711200009E
:10125C0075120000791200007D120000811200004E
:10126C0001230CE001230AE0012308E0012306E03E
:10127C00012304E0012302E0012300E000231846CF
:10128C0002B07047300100103401001082B0164BD0
:10129C001B680193154B1B680093019B082B1FD1F6
:1012AC00009B052B1AD801A252F823F0D112000092
:1012BC00D5120000D9120000DD120000E11200006E
:1012CC00E512000000230CE000230AE0002308E0F4
:1012DC00002306E0012304E0012302E0012300E0E7
:1012EC000023184602B07047300100103401001082
:1012FC0008B5FFF7CBFF0346002B07D04FF01023A8
:10130C004FF08042D3F80832C2F8583500BF08BD00
:10131C00024B034A1A6000BF704700BF0000002058
:10132C000090D00308B5FFF753FE0346002B0ED0F8
:10133C004FF080430022C3F80C214FF08043002271
:10134C00C3F810214FF080430022C3F83825FFF773
:10135C0071FE0346002B76D04FF08053624AD3F8CF
:10136C000434C2F820354FF080535F4AD3F8083468
:10137C00C2F824354FF080535B4AD3F80C34C2F8D2
:10138C0028354FF08053584AD3F81034C2F82C3516
:10139C004FF08053544AD3F81434C2F830354FF020
:1013AC008053514AD3F81834C2F834354FF0805377
:1013BC004D4AD3F81C34C2F840354FF080534A4A9A
:1013CC00D3F82034C2F844354FF08053464AD3F852
:1013DC002434C2F848354FF08053434AD3F82834AC
:1013EC00C2F84C354FF080533F4AD3F82C34C2F836
:1013FC0050354FF080533C4AD3F83034C2F8543552
:10140C004FF08053384AD3F83434C2F860354FF07B
:10141C008053354AD3F83834C2F864354FF08053D2
:10142C00314AD3F83C34C2F868354FF080532E4A19
:10143C00D3F84034C2F86C354FF080532A4AD3F8B5
:10144C004434C2F87035FFF727FE0346002B02D058
:10145C00264B274A1A60FFF751FE0346002B03D098
:10146C00244BFB22C3F81825FFF77AFE0346002B0A
:10147C000AD0214B1B6823F00F02204B1B6803F092
:10148C000F031D4913430B60FFF79CFE0346002B13
:10149C0003D01B4B4FF400721A60FFF7C5FE0346D6
:1014AC00002B0DD04FF08043D3F8003403F0010330
:1014BC00002B05D04FF080436FF00102C3F80024DD
:1014CC00104BD3F888300F4A43F47003C2F88830BD
:1014DC00BFF34F8F00BFBFF36F8F00BFFFF708FF45
:1014EC00FFF716FF00BF08BD00C000408C5600403F
:1014FC004881030000F00040E40E00405802001048
:10150C004096024000ED00E008B50C2200211E4878
:10151C0011F068FD4FF0A0430322C3F818274FF0D9
:10152C00A0430022C3F82027184B0622C3F80C2531
:10153C00164B0822C3F81425144B0022C3F86C2553
:10154C00124B134AC3F82425104B0022C3F81C215C
:10155C000E4B0022C3F808210C4B8422C3F8042341
:10156C000C4B402283F802230A4B04221A60074BCF
:10157C000422C3F80025054B01229A60034B01227B
:10158C001A6000BF08BD00BF3802002000200040D8
:10159C0000E0D70100E100E082B001900091044A24
:1015AC00019B1360024A009B536000BF02B070475E
:1015BC0038020020024B8422C3F8042300BF70477A
:1015CC000020004082B003468DF807309DF80730AC
:1015DC00012B04D1054B1122C3F81C2503E0034B4E
:1015EC001322C3F81C2500BF02B070470020004036
:1015FC0082B003468DF807309DF80730112B07D0C9
:10160C009DF80730132B03D09DF80730122B0BD10C
:10161C000A4B01221A72094A9DF807305372084B83
:10162C001222C3F81C2505E0054A9DF80730C2F8C4
:10163C001C3500BF00BF02B0704700BF380200204D
:10164C0000200040024BD3F81835DBB21846704727
:10165C000020004008B5FFF702F80D4BD3F8083115
:10166C00002B05D00A4B0022C3F8082100F034F8F7
:10167C00074BD3F81C31002B05D0054B0022C3F8C7
:10168C001C2100F007F8FEF7F2FF00BF08BD00BFF9
:10169C000020004008B50E4B1B7A012B0BD10C4BD4
:1016AC0000221A720A4B5B7A83F01003DAB2094BF0
:1016BC00C3F81C2508E0064B1B68002B04D0044B18
:1016CC001B689847012300E00023184608BD00BFA3
:1016DC00380200200020004008B5064B5B68002B48
:1016EC0004D0044B5B689847012300E000231846A4
:1016FC0008BD00BF3802002082B003460A46ADF890
:10170C00063013468DF80530BDF806301B0A9AB228
:10171C00BDF806109DF805304B40DBB2034931F89B
:10172C00133053409BB2184602B070478C390100FD
:10173C0008B541F2DC020021204811F053FC1F4B8C
:10174C0000221A701D4B00225A701C4B00229A70FA
:10175C001A4B002283F8CF20184B002283F8D2209A
:10176C00164B002283F8CD20144B03F58053002236
:10177C00A3F8D620114B03F580530022A3F8D420F4
:10178C000E4B03F58053002283F8D8200F21FF2045
:10179C0001F06EF803461A46084BDA700F21FF2051
:1017AC0001F066F803461A46044B1A7104490548C1
:1017BC00FFF7F2FEFFF7FEFE00BF08BD440200205B
:1017CC006D270000BD26000010B586B00446084603
:1017DC0011461A4623468DF80F3003468DF80E300D
:1017EC000B468DF80D301346ADF80A309DF80F30CE
:1017FC00013B052B38D801A252F823F04918000000
:10180C004118000039180000311800002918000098
:10181C002118000056238DF8173027E049238DF846
:10182C00173023E057238DF817301FE055238DF820
:10183C0017301BE045238DF8173017E043238DF844
:10184C001730FFF730F801F063FB0490104BD87899
:10185C00104B00930023049A42F2107101F0DAF954
:10186C000D4800F059FB01E001230EE0BDF80A40E1
:10187C009DF80D209DF80E109DF81700BDF8203036
:10188C000093234600F0E4FC0346184606B010BD56
:10189C0044020020412400008C3B010000B585B0BF
:1018AC0001900B468DF8033000F0D0FD442000F081
:1018BC00EFFD00238DF80F300CE09DF80F30019AEE
:1018CC0013441B78184600F0E3FD9DF80F300133EC
:1018DC008DF80F309DF80F209DF803309A42ECD311
:1018EC0000F02CFE00F058FC0023184605B05DF803
:1018FC0004FB00000FB400B58DB07C4B1B78012BA2
:10190C0040F0ED807A4B09930FAB019300F09EFDF4
:10191C00462000F0BDFD0E9B0B93D5E00B9B1B7876
:10192C00252B40F0C9800B9B01330B930B9B1B7831
:10193C00252B00F0AD80252BC0F2AE80782B00F368
:10194C00AB80632BC0F2A880633B152B00F2A48004
:10195C0001A252F823F000BFBD190000FB190000D2
:10196C00A51A0000A51A0000A51A0000A51A00006F
:10197C00A51A0000A51A0000A51A0000A51A00005F
:10198C00A51A0000A51A0000A51A0000671A00008D
:10199C00A51A0000A51A0000D5190000A51A000010
:1019AC00A51A0000A51A0000A51A0000311A0000A3
:1019BC00019B1A1D01921B688DF81B309DF81B3082
:1019CC00184600F065FD7CE0019B1A1D01921B6816
:1019DC000A9307E00A9B1B78184600F059FD0A9BF6
:1019EC0001330A930A9B1B78002BF3D169E0019B0E
:1019FC001A1D01921B68089302A8089B3D4A1021EE
:101A0C0011F0E0FB02AB0A9307E00A9B1B78184627
:101A1C0000F03EFD0A9B01330A930A9B1B78002BB6
:101A2C00F3D14EE0019B1A1D01921B68089302A88A
:101A3C00089B314A102111F0C5FB02AB0A9307E059
:101A4C000A9B1B78184600F023FD0A9B01330A936E
:101A5C000A9B1B78002BF3D133E0019B1A1D0192DA
:101A6C001B68079302A8079B244A102111F0AAFBBC
:101A7C0002AB0A9307E00A9B1B78184600F008FD9E
:101A8C000A9B01330A930A9B1B78002BF3D118E0B5
:101A9C00252000F0FDFC14E0099B0A9307E00A9B4B
:101AAC001B78184600F0F4FC0A9B01330A930A9B3E
:101ABC001B78002BF3D104E00B9B1B78184600F02D
:101ACC00E7FC0B9B01330B930B9B1B78002B7FF4D8
:101ADC0025AF00F033FD00F05FFB002300E0002396
:101AEC0018460DB05DF804EB04B070475017002099
:101AFC00983B0100B83B0100BC3B0100C03B01001E
:101B0C000FB400B58DB07C4B1B78022B40F0ED80F0
:101B1C007A4B09930FAB019300F098FC462000F030
:101B2C00B7FC0E9B0B93D5E00B9B1B78252B40F041
:101B3C00C9800B9B01330B930B9B1B78252B00F05F
:101B4C00AD80252BC0F2AE80782B00F3AB80632BDD
:101B5C00C0F2A880633B152B00F2A48001A252F8BE
:101B6C0023F000BFC91B0000071C0000B11C0000C3
:101B7C00B11C0000B11C0000B11C0000B11C000025
:101B8C00B11C0000B11C0000B11C0000B11C000015
:101B9C00B11C0000B11C0000731C0000B11C000043
:101BAC00B11C0000E11B0000B11C0000B11C0000C6
:101BBC00B11C0000B11C00003D1C0000019B1A1D53
:101BCC0001921B688DF81B309DF81B30184600F0F5
:101BDC005FFC7CE0019B1A1D01921B680A9307E0D5
:101BEC000A9B1B78184600F053FC0A9B01330A939E
:101BFC000A9B1B78002BF3D169E0019B1A1D019203
:101C0C001B68089302A8089B3D4A102111F0DAFAD0
:101C1C0002AB0A9307E00A9B1B78184600F038FCCD
:101C2C000A9B01330A930A9B1B78002BF3D14EE0DD
:101C3C00019B1A1D01921B68089302A8089B314A4C
:101C4C00102111F0BFFA02AB0A9307E00A9B1B7834
:101C5C00184600F01DFC0A9B01330A930A9B1B7863
:101C6C00002BF3D133E0019B1A1D01921B680793E3
:101C7C0002A8079B244A102111F0A4FA02AB0A9384
:101C8C0007E00A9B1B78184600F002FC0A9B013304
:101C9C000A930A9B1B78002BF3D118E0252000F047
:101CAC00F7FB14E0099B0A9307E00A9B1B78184684
:101CBC0000F0EEFB0A9B01330A930A9B1B78002B66
:101CCC00F3D104E00B9B1B78184600F0E1FB0B9B57
:101CDC0001330B930B9B1B78002B7FF425AF00F08B
:101CEC002DFC00F059FA002300E0002318460DB03B
:101CFC005DF804EB04B0704750170020983B0100CE
:101D0C00B83B0100BC3B0100C03B01000FB400B567
:101D1C008DB07C4B1B78032B40F0ED807A4B0993F4
:101D2C000FAB019300F092FB462000F0B1FB0E9B31
:101D3C000B93D5E00B9B1B78252B40F0C9800B9B9C
:101D4C0001330B930B9B1B78252B00F0AD80252BBF
:101D5C00C0F2AE80782B00F3AB80632BC0F2A8806E
:101D6C00633B152B00F2A48001A252F823F000BFB4
:101D7C00D51D0000131E0000BD1E0000BD1E00007E
:101D8C00BD1E0000BD1E0000BD1E0000BD1E0000DB
:101D9C00BD1E0000BD1E0000BD1E0000BD1E0000CB
:101DAC00BD1E00007F1E0000BD1E0000BD1E0000F9
:101DBC00ED1D0000BD1E0000BD1E0000BD1E00007C
:101DCC00BD1E0000491E0000019B1A1D01921B68DC
:101DDC008DF81B309DF81B30184600F059FB7CE049
:101DEC00019B1A1D01921B680A9307E00A9B1B7842
:101DFC00184600F04DFB0A9B01330A930A9B1B7893
:101E0C00002BF3D169E0019B1A1D01921B6808930A
:101E1C0002A8089B3D4A102111F0D4F902AB0A9399
:101E2C0007E00A9B1B78184600F032FB0A9B013333
:101E3C000A930A9B1B78002BF3D14EE0019B1A1DD1
:101E4C0001921B68089302A8089B314A102111F0DB
:101E5C00B9F902AB0A9307E00A9B1B78184600F00D
:101E6C0017FB0A9B01330A930A9B1B78002BF3D1B7
:101E7C0033E0019B1A1D01921B68079302A8079B74
:101E8C00244A102111F09EF902AB0A9307E00A9B39
:101E9C001B78184600F0FCFA0A9B01330A930A9B44
:101EAC001B78002BF3D118E0252000F0F1FA14E098
:101EBC00099B0A9307E00A9B1B78184600F0E8FA86
:101ECC000A9B01330A930A9B1B78002BF3D104E085
:101EDC000B9B1B78184600F0DBFA0B9B01330B9322
:101EEC000B9B1B78002B7FF425AF00F027FB00F039
:101EFC0053F9002300E0002318460DB05DF804EB05
:101F0C0004B0704750170020983B0100B83B01000B
:101F1C00BC3B0100C03B01000FB400B58DB0784B49
:101F2C0009930FAB019300F091FA462000F0B0FA40
:101F3C000E9B0B93D4E00B9B1B78252B40F0C88099
:101F4C000B9B01330B930B9B1B78252B00F0AC8068
:101F5C00252BC0F2AD80782B00F3AA80632BC0F246
:101F6C00A780633B152B00F2A38001A252F823F04B
:101F7C00D51F000013200000BD200000BD20000074
:101F8C00BD200000BD200000BD200000BD200000D1
:101F9C00BD200000BD200000BD200000BD200000C1
:101FAC00BD2000007F200000BD200000BD200000EF
:101FBC00ED1F0000BD200000BD200000BD20000072
:101FCC00BD20000049200000019B1A1D01921B68D6
:101FDC008DF81B309DF81B30184600F059FA7CE048
:101FEC00019B1A1D01921B680A9307E00A9B1B7840
:101FFC00184600F04DFA0A9B01330A930A9B1B7892
:10200C00002BF3D169E0019B1A1D01921B68089308
:10201C0002A8089B3B4A102111F0D4F802AB0A939A
:10202C0007E00A9B1B78184600F032FA0A9B013332
:10203C000A930A9B1B78002BF3D14EE0019B1A1DCF
:10204C0001921B68089302A8089B2F4A102111F0DB
:10205C00B9F802AB0A9307E00A9B1B78184600F00C
:10206C0017FA0A9B01330A930A9B1B78002BF3D1B6
:10207C0033E0019B1A1D01921B68079302A8079B72
:10208C00224A102111F09EF802AB0A9307E00A9B3A
:10209C001B78184600F0FCF90A9B01330A930A9B43
:1020AC001B78002BF3D118E0252000F0F1F914E097
:1020BC00099B0A9307E00A9B1B78184600F0E8F985
:1020CC000A9B01330A930A9B1B78002BF3D104E083
:1020DC000B9B1B78184600F0DBF90B9B01330B9321
:1020EC000B9B1B78002B7FF426AF00F027FA00F037
:1020FC0053F8002318460DB05DF804EB04B070479C
:10210C00983B0100B83B0100BC3B0100C03B010007
:10211C0000B587B003900B468DF80B3072B600BF3C
:10212C001B4B93F8CD308DF8163062B600BF9DF87E
:10213C000B209DF81630013B9A4212DA9DF80B30B9
:10214C009AB29DF816309BB2013B9BB2009313469A
:10215C00412204210220FFF737FB00238DF81730B2
:10216C000FE09DF81630013B8DF8173072B600BFAA
:10217C009DF817301A460749039810F0FDFE62B619
:10218C0000BF9DF81730184607B05DF804FB00BF80
:10219C00440200204A02002008B572B600BF1F4B53
:1021AC0003F5805393F8D830002B32D11B4B5B785E
:1021BC00012B03D1194B00225A702AE0174B1B78C4
:1021CC00012B26D0154B03F58053B3F8D420134BB9
:1021DC0003F58053B3F8D6309A421AD00F4B03F55F
:1021EC008053B3F8D6305A1C91B20C4A02F5805287
:1021FC00A2F8D610C3F30B03084A134493F8D33058
:10220C001846FFF7F5F9054B03F58053012283F8C7
:10221C00D82062B600BF00BF08BD00BF440200203A
:10222C0008B5034B01221A70FFF7B6FF00BF08BDBB
:10223C004402002008B572B600BF044B00221A708D
:10224C0062B600BFFFF7A8FF00BF08BD4402002024
:10225C0010B582B00446084611461A4623468DF83E
:10226C00073003468DF806300B468DF805301346C3
:10227C00ADF8023000F0EAF89DF80730184600F08F
:10228C0007F901200FF02CFC03465B78184600F090
:10229C00FFF801200FF024FC03469B78184600F051
:1022AC00F7F89DF80630184600F0F2F89DF8053066
:1022BC00184600F0EDF8BDF802301B0A9BB2DBB2F9
:1022CC00184600F0E5F8BDF80230DBB2184600F015
:1022DC00DFF8BDF810301B0A9BB2DBB2184600F0D9
:1022EC00D7F8BDF81030DBB2184600F0D1F800F08A
:1022FC0025F99DF80730432B02D1FFF79BFF01E036
:10230C00FFF74AFF0023184602B010BD00B583B09A
:10231C003E4B5B798DF807309DF80730413B132B12
:10232C006FD801A252F823F0FB2300000F24000009
:10233C00BF230000912300000F2400000F24000095
:10234C000F2400000F2400000F2400000F240000B5
:10235C000F240000E72300000F240000AB23000033
:10236C000F2400000F2400008B23000085230000A5
:10237C0097230000D32300000FF0DCFC41E0FEF7B4
:10238C00C8F83EE0FEF731F83BE0204B93F8CD3037
:10239C00013BDBB219461E4800F03CF831E01B4B08
:1023AC0093F8CD30013BDBB21946194807F0A4F97C
:1023BC0027E0164B93F8CD30013BDBB2194614489D
:1023CC0005F07AF91DE0114B93F8CD30013BDBB2EF
:1023DC0019460F4807F090F913E00C4B93F8CD30E9
:1023EC00013BDBB219460A4805F066F909E0074BD8
:1023FC0093F8CD30013BDBB21946054804F08AFE58
:10240C0000BF00BF03B05DF804FB00BF4402002016
:10241C004A02002000B583B001900B468DF80330C2
:10242C000348FFF779FD00BF03B05DF804FB00BF64
:10243C00C43B010000B583B003468DF80730FEF7AE
:10244C0068F800BF03B05DF804FB000072B600BF73
:10245C000E4B03F580534FF6FF72A3F8DA200B4BAB
:10246C0003F58053B3F8D4305A1C91B2074A02F5E5
:10247C008052A2F8D410C3F30B03044A13447E22F7
:10248C0083F8D32062B600BF00BF7047440200201F
:10249C0000B583B003468DF8073072B600BF264BEB
:1024AC0003F58053B3F8DA309DF80720114618462F
:1024BC00FFF722F903461A461F4B03F58053A3F886
:1024CC00DA209DF807307E2B03D09DF807307D2B4A
:1024DC0018D1194B03F58053B3F8D4305A1C91B270
:1024EC00154A02F58052A2F8D410C3F30B03124A1A
:1024FC0013447D2283F8D3209DF8073083F020030A
:10250C008DF807300C4B03F58053B3F8D4305A1CBC
:10251C0091B2094A02F58052A2F8D410C3F30B030E
:10252C00054A13449DF8072083F8D32062B600BFF8
:10253C0000BF03B05DF804FB4402002000B583B07B
:10254C0072B600BF174B03F58053B3F8DA30DB4398
:10255C00ADF80630BDF80630DBB21846FFF798FF31
:10256C00BDF806301B0A9BB2DBB21846FFF790FF92
:10257C000C4B03F58053B3F8D4305A1C91B2094A72
:10258C0002F58052A2F8D410C3F30B03054A13448E
:10259C007E2283F8D32062B600BF00BF03B05DF883
:1025AC0004FB00BF44020020054B002283F8CD2021
:1025BC00034B4FF6FF72A3F8D02000BF704700BF4B
:1025CC004402002000B583B003468DF807309DF817
:1025DC0007307D2B04D11B4B012283F8D2202DE038
:1025EC00184B93F8D230012B09D19DF8073083F0AA
:1025FC0020038DF80730134B002283F8D220114BA7
:10260C0093F8CD301A460F4B13449DF807205A719E
:10261C000C4B93F8CD300133DAB20A4B83F8CD2052
:10262C00084BB3F8D0309DF8072011461846FFF739
:10263C0063F803461A46034BA3F8D02000BF03B03F
:10264C005DF804FB440200200A4BB3F8D0304FF283
:10265C00B802934208D1074B93F8CD30023BDAB263
:10266C00044B83F8CD2003E0024B002283F8CD20ED
:10267C0000BF70474402002000B583B000230093D4
:10268C000023432204210220FFF79EF800BF03B071
:10269C005DF804FB00B583B00023009300234222B5
:1026AC0004210220FFF790F800BF03B05DF804FB93
:1026BC0008B52A4B5B78012B14D1284B1B78012BC6
:1026CC0009D10020FEF77EFF244B03F58053002236
:1026DC0083F8D82002E00120FEF774FF1F4B002284
:1026EC005A7038E01D4B1B78012B06D11B4B03F5A0
:1026FC008053002283F8D8202DE0184B03F580532B
:10270C00B3F8D420154B03F58053B3F8D6309A4266
:10271C001BD0124B03F58053012283F8D8200F4BAA
:10272C0003F58053B3F8D6305A1C91B20B4A02F51C
:10273C008052A2F8D610C3F30B03084A134493F843
:10274C00D3301846FEF754FF05E0044B03F58053D5
:10275C00002283F8D82000BF08BD00BF440200202F
:10276C0000B583B000238DF80730FEF76BFF0346EE
:10277C008DF80630334B93F8CF30002B14D1314BFE
:10278C0093F8CE307E2B0FD19DF806307E2B0BD0DC
:10279C002C4B012283F8CF20FFF706FF9DF8063063
:1027AC001846FFF70FFF41E0264B93F8CF30012B73
:1027BC001AD19DF806307E2B16D09DF8063018469F
:1027CC00FFF700FF1F4B93F8CD30C72B2ED90F21ED
:1027DC001D4800F049FE1B4B002283F8CD20194BFD
:1027EC00002283F8CF2021E0164B93F8CF30012B39
:1027FC001CD19DF806307E2B18D1FFF725FF114B0D
:10280C00002283F8CF200F4B93F8CD30002B04D14E
:10281C000F210E4800F028FE08E0FFF777FD094B6A
:10282C00002283F8CD2001238DF80730054A9DF84E
:10283C00063082F8CE309DF80730184603B05DF8AC
:10284C0004FB00BF4402002085260000A1260000E6
:10285C0008B54FF4DA720021034810F0C3FB0348AB
:10286C00FEF738FB00BF08BD20130020392F0000F5
:10287C0084B003460A468DF8073013468DF80630AF
:10288C0072B600BF9DF80730012B03D09DF80730BE
:10289C00002B1BD19DF807202C491346DB009B1AFB
:1028AC009B000B4411331B78002B0FD19DF8072094
:1028BC0026491346DB009B1A9B000B441133012263
:1028CC001A7062B600BF9DF807303BE09DF80730E8
:1028DC00FF2B34D102238DF80F302CE09DF80F2004
:1028EC001A491346DB009B1A9B000B4411331B78CF
:1028FC00002B1BD19DF80F2014491346DB009B1AAB
:10290C009B000B44113301221A709DF80F200F49C4
:10291C001346DB009B1A9B000B4418339DF80620D2
:10292C001A7062B600BF9DF80F300BE09DF80F30A7
:10293C0001338DF80F309DF80F300E2BCED962B6C7
:10294C0000BFFF23184604B0704700BF20130020BF
:10295C0010B586B0009111461A4603468DF8073023
:10296C000B468DF8063013468DF8053000238DF894
:10297C00173016E09DF81720A5491346DB009B1A6B
:10298C009B000B4411331B78002B05D09DF81720AE
:10299C009DF807309A4209D09DF8173001338DF815
:1029AC0017309DF817300E2BE4D900E000BF9DF8CE
:1029BC0017300F2B00F0288172B600BF9DF807204E
:1029CC0093491346DB009B1A9B000B4412339DF872
:1029DC0005201A709DF80630002B02D0012B26D052
:1029EC0045E09DF8072000990B465B011944884887
:1029FC001346DB009B1A9B0003441960009A134694
:102A0C005B011A4440F20113A3FB0213D21A5208C1
:102A1C001344DB0D9DF8072098B27D491346DB006B
:102A2C009B1A9B000B44083302461A801FE09DF84A
:102A3C00072077491346DB009B1A9B000B44009A36
:102A4C001A60009A40F20113A3FB0213D21A520827
:102A5C001344DB0D9DF8072098B26D491346DB003B
:102A6C009B1A9B000B44083302461A8000BF9DF84A
:102A7C00072067491346DB009B1A9B000B44083365
:102A8C001B88002B19D19DF8072061491346DB00E8
:102A9C009B1A9B000B441C68FEF75AFA034623440E
:102AAC009DF8072023F07F4159481346DB009B1A01
:102ABC009B0003440433196012E0FEF749FA034605
:102ACC0003F1FF1303F57F439DF8072023F07F41AB
:102ADC004F481346DB009B1A9B00034404331960D8
:102AEC009DF807204A491346DB009B1A9B000B44B8
:102AFC00103301221A709DF8072045491346DB005C
:102B0C009B1A9B000B441433089A1A60404B93F8A1
:102B1C00B031002B72D100238DF8173004E09DF8F2
:102B2C00173001338DF817309DF8172038491346AC
:102B3C00DB009B1A9B000B4410331B78002BEED050
:102B4C009DF8172032491346DB009B1A9B000B445F
:102B5C0004331A682E4BD3F8AC31D31A23F07F43CD
:102B6C0004939DF817308DF816309DF8163001330C
:102B7C008DF817302BE09DF8172025491346DB0004
:102B8C009B1A9B000B4410331B78002B1AD09DF81A
:102B9C0017201F491346DB009B1A9B000B44043380
:102BAC001A681B4BD3F8AC31D31A23F07F43039331
:102BBC00039A049B9A4205D2039B04939DF8173009
:102BCC008DF816309DF8173001338DF817309DF8BD
:102BDC0017300E2BCFD99DF816200D491346DB006C
:102BEC009B1A9B000B4404331B68094AC2F8A8319A
:102BFC00074BD3F8A8311846FEF776F9044B01229F
:102C0C0083F8A42162B600E000BF06B010BD00BF7F
:102C1C002013002000B589B0029101921A46034698
:102C2C008DF80F3013468DF80E3000238DF81F30C1
:102C3C0016E09DF81F20A3491346DB009B1A9B004E
:102C4C000B4411331B78002B05D09DF81F209DF8E9
:102C5C000F309A4209D09DF81F3001338DF81F3088
:102C6C009DF81F300E2BE4D900E000BF9DF81F30FB
:102C7C000F2B00F0238172B600BF9DF80F209149F5
:102C8C001346DB009B1A9B000B44123301221A7073
:102C9C009DF80E30002B02D0012B26D045E09DF87C
:102CAC000F2002990B465B01194486481346DB0042
:102CBC009B1A9B0003441960029A13465B011A4449
:102CCC0040F20113A3FB0213D21A52081344DB0D7A
:102CDC009DF80F2098B27B491346DB009B1A9B0092
:102CEC000B44083302461A801FE09DF80F207549EB
:102CFC001346DB009B1A9B000B44029A1A60029A43
:102D0C0040F20113A3FB0213D21A52081344DB0D39
:102D1C009DF80F2098B26B491346DB009B1A9B0061
:102D2C000B44083302461A8000BF9DF80F206549FA
:102D3C001346DB009B1A9B000B4408331B88002BAB
:102D4C0017D19DF80F205F491346DB009B1A9B009F
:102D5C000B441A68019B13449DF80F2023F07F410C
:102D6C0058481346DB009B1A9B000344043319603C
:102D7C0010E0019B03F1FF1303F57F439DF80F2037
:102D8C0023F07F414F481346DB009B1A9B00034402
:102D9C00043319609DF80F204A491346DB009B1A37
:102DAC009B000B44103301221A709DF80F204549EB
:102DBC001346DB009B1A9B000B4414330A9A1A60CF
:102DCC00404B93F8B031002B72D100238DF81F309B
:102DDC0004E09DF81F3001338DF81F309DF81F2043
:102DEC0038491346DB009B1A9B000B4410331B78AD
:102DFC00002BEED09DF81F2032491346DB009B1AA6
:102E0C009B000B4404331A682E4BD3F8AC31D31A05
:102E1C0023F07F4306939DF81F308DF81E309DF8EC
:102E2C001E3001338DF81F302BE09DF81F202549F3
:102E3C001346DB009B1A9B000B4410331B78002BB2
:102E4C001AD09DF81F201F491346DB009B1A9B00CC
:102E5C000B4404331A681B4BD3F8AC31D31A23F050
:102E6C007F430593059A069B9A4205D2059B0693D0
:102E7C009DF81F308DF81E309DF81F3001338DF8F2
:102E8C001F309DF81F300E2BCFD99DF81E200D49F9
:102E9C001346DB009B1A9B000B4404331B68094A46
:102EAC00C2F8A831074BD3F8A8311846FEF71CF826
:102EBC00044B012283F8A42162B600E000BF09B0E4
:102ECC005DF804FB2013002082B003468DF8073018
:102EDC0072B600BF9DF807200C491346DB009B1A05
:102EEC009B000B44103300221A709DF807200749F1
:102EFC001346DB009B1A9B000B44143300221A6010
:102F0C0062B600BF00BF02B0704700BF20130020A4
:102F1C0008B5FEF71DF80346184608BD024BD3F85A
:102F2C00A8311846704700BF2013002000B587B0A9
:102F3C008D4B1B7C012B15D18B4BD3F8A8218A4BC5
:102F4C005B689A420ED1884B00221A74864B5B69DF
:102F5C0000209847FDF7FCFF03460F331846FDF79A
:102F6C00C3FF53E2804B5A687F4BD3F8A8319A4287
:102F7C0040D100238DF8173038E09DF817207A499E
:102F8C001346DB009B1A9B000B4410331B78012B60
:102F9C0027D19DF81730012B23D09DF81730002B2B
:102FAC001FD09DF8172070491346DB009B1A9B001D
:102FBC000B4404331A686C4BD3F8A831D31A23F0A2
:102FCC007F43B3F5247F0CD29DF81720664BD3F8C2
:102FDC00A81165481346DB009B1A9B00034404337D
:102FEC0019609DF8173001338DF817309DF81730A4
:102FFC000E2BC2D900238DF817307CE19DF81720D9
:10300C0059491346DB009B1A9B000B4410331B7869
:10301C00012B40F06B81544BD3F8A8119DF817206D
:10302C0051481346DB009B1A9B00034404331B6876
:10303C00994240F05B819DF817109DF817204A4883
:10304C000B46DB005B1A9B000344043319684648AB
:10305C001346DB009B1A9B0003440C3319609DF84C
:10306C001730012B21D1404B012283F8B0219DF860
:10307C0017203D491346DB009B1A9B000B44103371
:10308C0000221A709DF8172037491346DB009B1A53
:10309C009B000B4414331B689DF81720104698476F
:1030AC00314B002283F8B02120E19DF817202E49E6
:1030BC001346DB009B1A9B000B4408331B88002B28
:1030CC0054D19DF8172028491346DB009B1A9B000E
:1030DC000B44103300221A709DF817202249134616
:1030EC00DB009B1A9B000B44143318689DF81720C7
:1030FC001D491346DB009B1A9B000B4418331B78AD
:10310C00194600F0B1F99DF8172017491346DB005A
:10311C009B1A9B000B4412331B78002B40F0E6806B
:10312C00114B012283F8B0219DF817200E4913464C
:10313C00DB009B1A9B000B4419689DF817200A486A
:10314C001346DB009B1A9B00034414331B689DF849
:10315C001700009300230122FFF7FAFB024B002219
:10316C0083F8B021C2E000BF201300209DF8172087
:10317C00A8491346DB009B1A9B000B4408331B88A1
:10318C00013B98B2A3491346DB009B1A9B000B44EE
:10319C00083302461A809DF817209E491346DB001F
:1031AC009B1A9B000B4408331B88002B40F0848037
:1031BC009DF8172097491346DB009B1A9B000B4484
:1031CC0019689DF8172093481346DB009B1A9B0047
:1031DC0003440C331B680B449DF8172023F07F41EC
:1031EC008C481346DB009B1A9B0003440433196084
:1031FC009DF8172087491346DB009B1A9B000B4454
:10320C0004331A68834BD3F8A831D31A23F07F43C5
:10321C00B3F5247F6AD29DF817207E491346DB0054
:10322C009B1A9B000B44103300221A709DF8172038
:10323C0078491346DB009B1A9B000B441433186827
:10324C009DF8172073491346DB009B1A9B000B4417
:10325C0018331B78194600F007F99DF817206D49B3
:10326C001346DB009B1A9B000B4412331B78002B7C
:10327C003CD1684B012283F8B0219DF81720654999
:10328C001346DB009B1A9B000B4419689DF8172012
:10329C0060481346DB009B1A9B00034414331B68E5
:1032AC009DF81700009300230122FFF751FB594BA7
:1032BC00002283F8B02119E09DF8172055491346D8
:1032CC00DB009B1A9B000B440C331B6803F1FF13B0
:1032DC0003F57F439DF8172023F07F414D4813469B
:1032EC00DB009B1A9B000344043319609DF81730D4
:1032FC0001338DF817309DF817300E2B7FF67EAE0C
:10330C00444BD3F8A831434AC2F8AC3100238DF8B2
:10331C00173004E09DF8173001338DF817309DF805
:10332C0017203C491346DB009B1A9B000B441033BF
:10333C001B78002B03D19DF817300E2BEAD99DF882
:10334C0017300E2B5ED89DF8172032491346DB0040
:10335C009B1A9B000B4404331A682E4BD3F8AC31E8
:10336C00D31A23F07F4304939DF817308DF8163051
:10337C009DF8163001338DF817302BE09DF817208F
:10338C0024491346DB009B1A9B000B4410331B781B
:10339C00002B1AD09DF817201E491346DB009B1AF0
:1033AC009B000B4404331A681A4BD3F8AC31D31A74
:1033BC0023F07F430393039A049B9A4205D2039B09
:1033CC0004939DF817308DF816309DF817300133A3
:1033DC008DF817309DF817300E2BCFD99DF816208D
:1033EC000C491346DB009B1A9B000B4404331B68EF
:1033FC00084AC2F8A831074BD3F8A8311846FDF794
:10340C0073FD03E0034B002283F8A42107B05DF8A1
:10341C0004FB00BF2013002000B583B016E072B689
:10342C0000BF104B9B6F0193019B9B680D4A9367E8
:10343C0062B600BF019B1B689847019B00221A6073
:10344C00019B00221A71019B00229A60054B9B6F15
:10345C00002BE4D1FDF7FBF8FDF757F8FDF7EFF87B
:10346C00F4E700BFD414002000B585B001900B46E2
:10347C008DF8033072B600BF1F4B039302E0039B21
:10348C000C330393039B1B68002B03D0039B1B4A39
:10349C009342F4D9039B194A934206D9FDF716FAC5
:1034AC001748FEF739FDFDF734F8039B019A1A60B3
:1034BC00039B9DF803201A71124B029303E0029BAD
:1034CC001B6808330293029B1B68002B06D0029BDF
:1034DC001B681A79039B1B799A42F0D9029B1A68D4
:1034EC00039B9A60029B039A1A6062B600BF00BFEE
:1034FC0005B05DF804FB00BFD4140020401500207B
:10350C00CC3B01004C15002000B589B00390084657
:10351C0011461A4603468DF80B300B468DF80A30CF
:10352C0013468DF8093000238DF81E3000238DF8DA
:10353C001A30FF238DF81B30039B93F8A530002B1A
:10354C0014BF01230023DBB28DF81930039A039BBF
:10355C0052689A659DF80A30012B15D101238DF81C
:10356C001E3003AB022118460FF046FB0346012B1D
:10357C0000F09381039B5B6800221A70039B5B68CD
:10358C0001333F221A7025E0039BB3F90830002B5E
:10359C0019D09DF81A30012B1CD101238DF81E3047
:1035AC0003AB022118460FF027FB0346012B00F05A
:1035BC007681039B5B6880221A70039B5B680133E6
:1035CC003F221A7006E09DF80B30022B02D101232A
:1035DC008DF81E309DF80B30022B54D102F08CFD6F
:1035EC000346ADF8163003AB022118460FF004FB6E
:1035FC000346012B00F05581BDF816301A46120116
:10360C00D31A5B009BB2ADF81630BDF81630C3F37D
:10361C000B03ADF81C30039B93F8A030002B07D0A4
:10362C00BDF81C306FEA43436FEA5343ADF81C30CE
:10363C00039B5B68BDF81C20D2B21A70BDF81C301D
:10364C001B0A9AB2039B5B680133D2B21A7003ABAC
:10365C00022118460FF0D0FA0346012B00F023810B
:10366C0040F60273ADF81430039B5B68BDF8142070
:10367C00D2B21A70BDF814301B0A9AB2039B5B6865
:10368C000133D2B21A709DF81930002B07D0039B6E
:10369C00184600F05BFC0346012B00F0068102206B
:1036AC000EF01EFA014603AB012218460FF03AFA4F
:1036BC000346012B00F0FB800A980FF011F903462A
:1036CC00002B1AD003AB012118460FF095FA0346D4
:1036DC00012B00F0EE80039B5B68FF221A7003AB9A
:1036EC00012118460FF088FA0346012B00F0E38005
:1036FC00039B5B68FF221A701AE00A9B1B78013B44
:10370C00012B09D803AB01220A9918460FF00AFACB
:10371C000346012B0BD1D7E00A9B1B789BB20122ED
:10372C0000924B2208210120FEF74EF800E000BF6A
:10373C00039A039B5268C3F8982004200EF0D0F92A
:10374C00014603AB012218460FF0ECF90346012B9E
:10375C0000F0B38003AB012118460FF04DFA03467D
:10376C00012B00F0AC80039B5B689DF809201A705C
:10377C0003AB012118460FF03FFA0346012B00F072
:10378C00A08000238DF81F300A980FF0A9F803468B
:10379C00002B09D09DF81F3043F008038DF81F3023
:1037AC0002238DF81B301AE00A9B1B78012B02D0E8
:1037BC00022B0AD013E09DF81F3043F008038DF85C
:1037CC001F3002238DF81B3009E09DF81F3043F0A9
:1037DC000C038DF81F3003238DF81B3000BF9DF8B0
:1037EC001F3063F03F038DF81F309DF81E305B00D7
:1037FC005AB29DF91F3013435BB28DF81F309DF800
:10380C001F3043F020038DF81F30039B5B689DF83D
:10381C001F201A7003AB012118460FF0EDF9034677
:10382C00012B50D000238DF81F309DF81F209DF8E0
:10383C000B3013438DF81F309DF81930DB005AB252
:10384C009DF91F3013435BB28DF81F309DF80B3080
:10385C00022B0CD00A980FF043F80346002B06D12C
:10386C009DF81F3043F020038DF81F3000E000BF9F
:10387C009DF81B30022B06D19DF81F3043F04003FE
:10388C008DF81F3002E09DF81B30032B039B5B6807
:10389C009DF81F201A70002317E000BF14E000BF32
:1038AC0012E000BF10E000BF0EE000BF0CE000BF54
:1038BC000AE000BF08E000BF06E000BF04E000BF64
:1038CC0002E000BF00E000BF0123184609B05DF81C
:1038DC0004FB000000B589B003900291029B00220A
:1038EC001A70029B00225A70029B5B781A46039B4B
:1038FC00B3F908309A4200F39282039B5B68029AF8
:10390C00527813441B788DF81D309DF81D3003F050
:10391C000703DAB2029B9A709DF81D30DB08DBB20C
:10392C0003F00103DAB2029BDA709DF81D301B091B
:10393C00DBB203F00103DAB2029B1A719DF81D3061
:10394C005B09DBB203F00103DAB2029B5A719DF8FA
:10395C001D309B09DBB203F00103DAB2029B9A71B2
:10396C00029B5B780133DAB2029B5A70029B5B7844
:10397C001A46039BB3F908309A4200F35282039B18
:10398C005B68029A527813441B788DF81D309DF8B1
:10399C001D305B08DBB203F00103DAB2029BDA7173
:1039AC009DF81D301B09DBB203F00303DAB2029B56
:1039BC001A729DF81D3003F00103DAB2029B9A7261
:1039CC00029BDB79012B04D1029B1B7A022B40F06A
:1039DC002A829DF81D309B08DBB203F00303032BF6
:1039EC000ED0032B10DC002B02D0022B04D00BE0EA
:1039FC00029B00221A7717E0029B01221A7713E030
:103A0C00029B02221A770FE09DF81D309B08DBB257
:103A1C009BB203F003039BB2009301232E220821D7
:103A2C000220FDF7D1FE11E29DF81D309B09DBB29F
:103A3C0003F00303032B10D0032B13DC002B02D059
:103A4C00022B05D00EE0029B002283F82D2019E0FA
:103A5C00029B012283F82D2014E0029B022283F8A2
:103A6C002D200FE09DF81D309B09DBB29BB203F0BB
:103A7C0003039BB2009302232E2208210220FDF7A0
:103A8C00A3FEE3E1029B5B780133DAB2029B5A702E
:103A9C00029B9B7A002B16D1029B5B781A46039BE8
:103AAC00B3F908309A4200F3C081039B5B68029A19
:103ABC00527813441A78029B5A72029B5B7801333A
:103ACC00DAB2029B5A70029B5B781A46039BB3F9DD
:103ADC0008309A4200F3AB81039B5B68029A5278E0
:103AEC009818029B03F10B02012304210EF0B0FF86
:103AFC00029B5B780233DAB2029B5A70029B5B78B2
:103B0C001A46039BB3F908309A4200F39281029B48
:103B1C001B7F022B20D0022B3DDC002B38D0012B3D
:103B2C0039D1039B5B68029A52789818029B03F177
:103B3C001C02012301210EF08BFF029B5B780233E8
:103B4C00DAB2029B5A70029B5B781A46039BB3F95C
:103B5C0008309A421EDD79E1039B5B68029A527829
:103B6C009818029B03F11C02012302210EF070FF36
:103B7C00029B5B780833DAB2029B5A70029B5B782B
:103B8C001A46039BB3F908309A4200F3548102E0C1
:103B9C0000BF00E000BF029B93F82D30022B20D019
:103BAC00022B3DDC002B38D0012B39D1039B5B68F9
:103BBC00029A52789818029B03F12D0201230121DD
:103BCC000EF046FF029B5B780233DAB2029B5A700E
:103BDC00029B5B781A46039BB3F908309A421EDDB0
:103BEC0034E1039B5B68029A52789818029B03F1AC
:103BFC002D02012302210EF02BFF029B5B78083370
:103C0C00DAB2029B5A70029B5B781A46039BB3F99B
:103C1C0008309A4200F3118102E000BF00E000BFBF
:103C2C00029BDB79012B04D1029B1B7A022B40F007
:103C3C000681029BDB78002B40F00381029BDB7931
:103C4C00012B40F0DB80039B5B68029A5278134493
:103C5C001B788DF81D30029B5B780133DAB2029B26
:103C6C005A709DF81D301AB2039B5B680299497813
:103C7C000B441B781B021BB213431BB2ADF81A305A
:103C8C00029B5B780133DAB2029B5A70BDF81A3092
:103C9C00B3F57C5F04D1039B012283F89E20ADE039
:103CAC00BDF81A30B3F57E5F04D1039B002283F874
:103CBC009E20A3E0BDF91A30002BC0F28880BDF81D
:103CCC001A3003F07F03ADF81830BDF81A30DB1151
:103CDC008DF817309DF817301E2B67D1039B5B684E
:103CEC00029A527813441B788DF81630039B5A684D
:103CFC00029B5B78013313441B788DF815309DF8CB
:103D0C0015301B021AB29DF816301BB213431BB2AE
:103D1C00ADF81230BDF91230002B04DA039B0122EE
:103D2C0083F8A02003E0039B002283F8A020BDF8B9
:103D3C00123003F40063002B09D0BDF812306FEA87
:103D4C0003536FEA13539BB2ADF81E3005E0BDF977
:103D5C001230C3F30B03ADF81E30BDF91E303D4AD3
:103D6C0082FB03121A441211DB17D31AADF81E3062
:103D7C00029BBDF81E20DA87029B5A78BDF81830DA
:103D8C00DBB21344DAB2029B5A70039B5B68029A53
:103D9C0052781A44039B9A6500BF029B5B781A46C3
:103DAC00039BB3F908309A421FD11AE0029B5B784F
:103DBC00023BDAB2029B5A70039B5B68029A527800
:103DCC001A44039B9A65029B01221A703EE0029BE7
:103DDC005B78023BDAB2029B5A70029B01221A708A
:103DEC000CE0029B01221A7030E0029B5B781A46B1
:103DFC00039BB3F908309A4225DC24E7039B5B68EC
:103E0C00029A52781A44039B9A65029803F069F857
:103E1C000346002B19D0029B01221A7016E000BF3A
:103E2C0014E000BF12E000BF10E000BF0EE000BFC6
:103E3C000CE000BF0AE000BF08E000BF06E000BFD6
:103E4C0004E000BF02E000BF00E000BF09B05DF875
:103E5C0004FB00BF8988888808B50C4B00221A70B7
:103E6C000A4B01225A70094B00229A701022002131
:103E7C0007480FF0B7F8054B0022DA741022002126
:103E8C0004480FF0AFF800BF08BD00BF501500206C
:103E9C005315002064150020014B9B781846704781
:103EAC0050150020014BDB7C184670475015002044
:103EBC0010B483B0034600918DF80730094A9DF881
:103ECC0007309370074B009A03331468506891685D
:103EDC00D2681C6058609960DA6000BF03B05DF86E
:103EEC00044B70475015002010B483B0034600916A
:103EFC008DF80730094A9DF80730D374074B009AA8
:103F0C0003F114041346186859689A68DB680FC4E7
:103F1C0000BF03B05DF8044B704700BF5015002084
:103F2C00094B1B78002B01D101230AE0064B9B782F
:103F3C00002B05D0044BDB7C002B01D0012300E0CF
:103F4C0000231846704700BF5015002082B0019026
:103F5C000023184602B0704782B001900023184627
:103F6C0002B0704782B001900023184602B070472F
:103F7C0082B001900023184602B0704782B00190C5
:103F8C0000910123184602B07047000030B583B091
:103F9C004FF4DE72002133480FF024F81022002178
:103FAC0031480FF01FF82F4B002283F882212D4B44
:103FBC00012283F8A1212B4B002283F8A221294B4B
:103FCC004FF42472A3F8A621264B0122C3F85C21DE
:103FDC00244B264A03F5C27413460FCB84E80F001A
:103FEC000DF044FD0346012B03D1012002F0BEFC71
:103FFC0002E0002002F0BAFC02F056FD1C4B00223D
:10400C009A71FCF793FD1B48FCF75CFD1A48FCF712
:10401C0063FD00210120FEF72BFC03461A46114BD1
:10402C0083F8A8210F4B93F8A8410E4BB3F8A63197
:10403C001D46FCF78DFF0246104B009301232946C9
:10404C002046FEF7E7FDFFF707FF00210020FEF7F3
:10405C000FFC03461A46034B83F8B02100BF03B094
:10406C0030BD00BF7415002040170020E43B010058
:10407C0030170020594300004144000085410000E6
:10408C0084B0019072B600BF264B1A78019B1B7846
:10409C009A4204D062B600BF4FF0FF333EE00023DB
:1040AC000393204BB3F801309AB2019BB3F8013063
:1040BC009BB29A420CD162B600BF1A4BB3F80330D4
:1040CC009BB21A46019BB3F803309BB2D31A25E07E
:1040DC00144BB3F801309BB21A46019BB3F8013074
:1040EC009BB2D31A012B13D10E4BB3F803309BB2F6
:1040FC000393019BB3F803309BB21A46039B9B1AA4
:10410C0003F57F43FF330393039B0133039302E0D7
:10411C004FF0FF33039362B600BF039B184604B005
:10412C00704700BF7415002082B001900091019B74
:10413C001B789AB2019B01331B789BB21B029BB27A
:10414C0013449AB2009BA3F80320019B02331B7803
:10415C009AB2019B03331B789BB21B029BB2134494
:10416C009AB2009BA3F80120019B1A79009B1A704C
:10417C0000BF02B07047000000B585B003468DF853
:10418C000F30FEF7CBFE03461C4AC2F8AC31FCF7ED
:10419C005BFB1A4B93F8A801184BD3F8AC21184BC6
:1041AC00009301234FF42471FEF734FD134B4FF4AD
:1041BC002472A3F8A621114B1B7C002B13D10DF0FC
:1041CC0055FC0346012B0BD1012002F0CFFB01F073
:1041DC004BFF0AF073FF03461A46084B1A8104E0A2
:1041EC0000F092F901E000F09BFC064B1B680133D8
:1041FC00044A136000BF05B05DF804FB7415002081
:10420C00854100004017002000B585B003468DF8AD
:10421C000F30464B93F86431023B162B6CD801A23D
:10422C0052F823F025430000054300008D420000A6
:10423C0093420000994200009F420000A5420000FA
:10424C00AB420000B1420000B7420000BD4200008A
:10425C00C342000005430000C9420000CF420000E9
:10426C00D5420000DB420000E1420000E7420000C2
:10427C00ED420000F3420000F9420000FF42000052
:10428C0000F07CFE49E000F0CDFE46E000F0E2FEDE
:10429C0043E000F0FFFE40E000F048FF3DE000F09E
:1042AC00C7FF3AE000F0F6FF37E001F00BF834E01E
:1042BC0001F028F831E001F09BF82EE001F0D4F980
:1042CC002BE001F003FA28E001F018FA25E001F0E8
:1042DC0035FA22E001F070FA1FE001F041FC1CE01D
:1042EC0001F01CFD19E001F031FD16E001F04EFD6E
:1042FC0013E001F097FD10E00C4B93F864319AB287
:10430C000A4BDB8800931346342209210120FDF768
:10431C005BFA02F0DBFD00E000BF054B5B6801338C
:10432C00034A536000BF05B05DF804FB7415002010
:10433C004017002000B583B003468DF80730FDF719
:10434C006FFF00BF03B05DF804FB000000B587B041
:10435C0003900AF0D9FE0346022B02D13248FDF736
:10436C00C9FA324BD3F8AC31039AD31A05932F4BBD
:10437C001B7C002B03D1059800F08EF94AE02B4BE7
:10438C0093F86431073B102B34D801A252F823F078
:10439C00E14300000144000001440000014400001E
:1043AC00E9430000E943000001440000014400001F
:1043BC000144000001440000F1430000F1430000FF
:1043CC0001440000014400000144000001440000CD
:1043DC00F9430000059800F075FE1BE0059800F00D
:1043EC00D3FF17E0059801F0AFF913E0059801F041
:1043FC00E5FC0FE00D4B93F864319AB20B4BDB8864
:10440C0000931346352209210220FDF7DDF902F055
:10441C005DFD00BF064B9B680133054A936000BFEE
:10442C0007B05DF804FB00BFF43B010074150020DD
:10443C004017002000B587B00390314BD3F8AC3156
:10444C00039AD31A05932E4B1B7C002B03D1059892
:10445C0000F044F94AE02A4B93F86431083B102BE6
:10446C0034D801A252F823F0B9440000D94400001A
:10447C00D9440000D9440000D9440000C1440000D4
:10448C00D9440000D9440000D9440000D9440000AC
:10449C00D9440000C9440000D9440000D9440000AC
:1044AC00D9440000D9440000D1440000059800F024
:1044BC0055FE1BE0059800F0B3FF17E0059801F0DE
:1044CC0093F913E0059801F0C5FC0FE00C4B93F841
:1044DC0064319AB20A4BDB880093134636220921C9
:1044EC000220FDF771F902F0F1FC00BF054BDB680F
:1044FC000133044AD36000BF07B05DF804FB00BF72
:10450C00741500204017002000B583B05A4B1B785F
:10451C00012B03D85948FDF7FFFCAAE0584B93F840
:10452C006431022B00F0A480564B1B68544AC2F82D
:10453C006031FCF70DFD0346514AC2F89831504BDF
:10454C00012283F8A0214E4B93F86431012B33D018
:10455C00012002F00DFBFCF7F7FA474B1B78022BFE
:10456C0002D0032B09D01CE0002002F0DFFA034636
:10457C001A46434B83F8802113E03F4B5B780133A1
:10458C0019464148FDF7C2FB3B4B5B780133DBB26C
:10459C00184602F0CBFA03461A46394B83F88021B1
:1045AC0000BF374B93F880311846FCF79FFAFCF7A5
:1045BC0043FBFCF75FFB17E0344BD3F80730304A72
:1045CC00B2F8A6211344314AC2F807302F4BD3F866
:1045DC000B302B4AB2F8A62113442C4AC2F80B30EC
:1045EC00FCF72AFBFCF746FB254B93F86431012BB7
:1045FC0022D1234B93F88331012B1DD1FCF7A4FA64
:10460C001F4B93F88231184602F090FA03461A4673
:10461C001B4B83F880211E48FDF778FB184B93F851
:10462C0080311846FCF762FAFCF706FBFCF722FB1C
:10463C00134B002283F88321114BB3F803309BB248
:10464C0001339AB20E4BA3F803200D4B93F8B00133
:10465C000B4BB3F8A631213B1946094BD3F8AC21CF
:10466C000C4B00930123FEF7D5FAFDF7E3FD00E0B8
:10467C0000BF03B05DF804FB50170020103C010094
:10468C007415002040170020183C01003017002042
:10469C00303C01004143000000B583B001900D484F
:1046AC00FDF73AFC0C4B93F86431012B0DD1FDF75F
:1046BC00B7FD022002F05CFA074A019BC2F8783180
:1046CC00054A019BC2F87C3100E000BF03B05DF8E5
:1046DC0004FB00BF3C3C01007415002070B596B083
:1046EC000390B148FDF718FCB04B93F86431022BE2
:1046FC000BD0AE4B93F864319BB200220092322265
:10470C0009210220FDF760F8B1E1032002F030FA34
:10471C00A748FDF7FBFA09200DF00AFC0346A34A53
:10472C00C2F86C31A14BD3F86C31002B08D10023AB
:10473C0000930023462209210220FDF745F896E15B
:10474C009A4BD3F86C3109221A70984BD3F86C3110
:10475C0009225A70954BD3F86C21944BD3F86C31D9
:10476C00C5325A60914BD3F86C3158688F4BD3F8E3
:10477C006C3103F108018D4BD3F86C3103F1C1049A
:10478C008A4BD3F86C31C233884AD2F86C21C332CD
:10479C000192009323468222FCF77EFA834BD3F8D6
:1047AC006C31B3F9083019468248FDF7A9F97F4BF3
:1047BC00D3F86C31B3F90830812B0DDD7B4BD3F87A
:1047CC006C31B3F908309BB20093002340220921CD
:1047DC000220FCF7F9FF3DE1744BD3F86C3193F8F0
:1047EC00C330002B03D17448FDF78AF932E16F4BCB
:1047FC00D3F86C3106AA11461846FFF76BF89DF8F2
:10480C001830002B06D16D48FDF780FA6B48FDF788
:10481C0077F91FE1654BD3F86C319DF81A2083F8BA
:10482C004E20624BD3F86C319DF8212083F84F2039
:10483C005E4BD3F86C313D331A460DF145031D68C0
:10484C005C689868D968156054609060D1601B7C76
:10485C001374564BD3F86C3106AA11461846FFF761
:10486C008DFB0346002B06D15548FDF74FFA5448F3
:10487C00FDF746F9EEE04D4BD3F86C3193F8A530CB
:10488C00002B20D0494B1B7C002B15D19DF81A30E6
:10489C00002B11D1454BD3F86C3106AA11461846A2
:1048AC0001F04EFC0346002B0DD14648FDF72EFAC5
:1048BC004448FDF725F9CDE04348FDF727FA424877
:1048CC00FDF71EF9C6E09DF819309BB219463F481A
:1048DC000EF0F9F90023ADF816309DF81830012BC5
:1048EC0022D19DF81F30012B1ED19DF81A30002BC0
:1048FC001AD104200DF0F4F8024606AB0B33114626
:10490C0018460EF03AF80346002B0DD0274BD3F87F
:10491C006C310DF116021146184600F0B1F8034641
:10492C00002B01D0012300E00023002B54D1284898
:10493C00FDF7ECF99DF818301C469DF81F301D460C
:10494C009DF81A301E4604200DF0CAF8024606AB3C
:10495C000B33114618460EF010F8034600933346FD
:10496C002A4621461B48FDF7D1F91948FDF7C8F82E
:10497C009DF818301C469DF81F301D469DF81A30C6
:10498C001E4604200DF0ACF8024606AB0B33114664
:10499C0018460DF0F2FF0346009333462A46214693
:1049AC000C48FDF7ADF855E0603C01007415002093
:1049BC00803C01008C3C0100983C0100A43C0100AF
:1049CC00BC3C0100C83C0100D83C0100E0160020B2
:1049DC00E03C0100E83C0100FCF7B6F8FCF7B8FA43
:1049EC000246244BD3F89831D21A224BD3F89C317F
:1049FC001344204AC2F89C31BDF8163019461E48A3
:104A0C000EF061F91B4BD3F87C31184601F0FCFE1B
:104A1C00184BD3F86C3193F8453019461748FDF70D
:104A2C007BFA012001F0A2FF124BDB8800220092DE
:104A3C00302209210320FCF7C7FE0E4BD3F86C3152
:104A4C00184601F0F7FF0B4B0022C3F86C2102F063
:104A5C003DFA0CE0074BD3F86C3118460DF0CCFA4C
:104A6C00044B0022C3F86C21012002F081F816B02F
:104A7C0070BD00BF74150020E0160020F43C01004E
:104A8C0000B587B0039002910299039801F0BCFB2A
:104A9C000346012B34D101F025FE204BDB88184650
:104AAC000AF0E2FA0AF00AFB03461A461B4B1A817B
:104ABC0000238DF8173010E0184B93F880310B3B26
:104ACC009DF8172015490A4492F88421934209D085
:104ADC009DF8173001338DF817309DF817300F2BD8
:104AEC00EAD900E000BF0AF06FFB03461A469DF8B6
:104AFC0017309B1ADAB2094B83F88121012308E0A5
:104B0C00002300930323292209210220FCF75CFED9
:104B1C000023184607B05DF804FB00BF7415002095
:104B2C0010B58AB000238DF8263001F045FAFBF75A
:104B3C0048FDB14BDB88002B01D1FBF72BFD0CF0B2
:104B4C0095FF0346002B31D1AB4BDA68AA4BD3F857
:104B5C005C319A4208D9A84BDA68A74BD3F85C3180
:104B6C00D31AA54AD36021E0A34B0122C3F85C21E0
:104B7C00002001F0FBFE02F0B5FAA048FCF7C0FFE4
:104B8C009D4BDA889C4BB3F803309BB200931346D1
:104B9C002F2209210220FCF717FE994B9B79013338
:104BAC00DAB2974B9A7102F091F9DFE1924B93F8DC
:104BBC006431002B0FD0904B93F864319AB28E4B2A
:104BCC00DB8800931346332209210220FCF7FCFDFD
:104BDC0002F07CF9CAE1884B0122C3F85C210AF08F
:104BEC006DFA03461A46844B1A81834BDA88824B42
:104BFC001B899A426FD10AF051FA0AF0E5FA034682
:104C0C00184601F093FF03461A467B4B83F880212C
:104C1C000AF054FA03461A46774B1A810CF04EFFF1
:104C2C000346002B5AD00CF021FF0346002B55D124
:104C3C00714B1A89704BDB889A420AD96E4B1B89CF
:104C4C001A466D4BDB88D31A1A466B4BC3F85C21A2
:104C5C000DE00AF047FA03461A46674B1B891344CA
:104C6C00654AD2889B1A1A46634BC3F85C21624B87
:104C7C0093F8A801604BD3F85C314FF4247202FB1B
:104C8C0003F15D4BD3F8AC215E4B00930123FDF790
:104C9C00C1FF594BD3F85C319BB21A4692001A44AF
:104CAC00D20013441B019AB2534BA3F8A621002344
:104CBC008DF8273006E001F07FF99DF8273001339D
:104CCC008DF827309DF827204B4BD3F85C31013BF6
:104CDC009A42F0D302E002F0F9F847E10AF014FA34
:104CEC0003468DF825309DF82530013B052B00F24D
:104CFC002E8101A252F823F01D4D00002D4F000013
:104D0C001D4D00001D4D00005B4F0000554F000075
:104D1C00394B0022C3F8682105AB18460AF02AFA71
:104D2C000AF064FA0346002B00F0A78005AB184686
:104D3C000DF0D6FD0346002B3ED105AB18460DF009
:104D4C006DFC03462C4AC2F868312B4BD3F8683102
:104D5C001B78992B12D1284BD3F8683193F8453036
:104D6C00112B0BD00AF01CFA03461C460AF02CFA45
:104D7C0003461A4621462448FCF7BCFD1E4BD3F8CB
:104D8C006831002B07D105AB18460DF0A9FB034683
:104D9C00194AC2F868310AF0C9F90346002B6CD1E4
:104DAC00154BD3F86831002B67D0134BD3F868310F
:104DBC00012283F8A42060E00DF0E4FB03460E4AC8
:104DCC00C2F868310C4BD3F86831002B55D1012354
:104DDC008DF826300D4B1B78032B4DD0032B44DC68
:104DEC00012B02D0022B13D03FE00DF02DFB03461C
:104DFC00014AC2F8683140E074150020243D0100DE
:104E0C003017002085410000343D01005017002070
:104E1C000AF0C6F903461A46554BB3F8CC309A4201
:104E2C0019D10AF0D1F903461A46514B93F8CE30FA
:104E3C009A420CBF01230023DBB21C4603F0DEFDBB
:104E4C0003462340002B06D00DF0FEFA0346494AD8
:104E5C00C2F8683111E000238DF826300DF0AEFA5F
:104E6C000346444AC2F8683107E00DF0EDFA0346F8
:104E7C00404AC2F8683100E000BF3E4BD3F86831BD
:104E8C00002B06D19DF82530012B49D102F01EF8DC
:104E9C006CE0042001F06CFE364BD3F8683109222B
:104EAC005A709DF82630012B20D103AB184601F027
:104EBC00F3F8FBF7E3FA03461B0A9BB2DBB2013BA8
:104ECC00DBB28DF80B302B4BD3F86831D3F8943020
:104EDC0003A9052218460EF04FF8264BD3F868317B
:104EEC00D3F8943005339DF80B201A70214BD3F86E
:104EFC00683193F851200132D2B283F851201D4B06
:104F0C0093F8A8011B4BD3F8783103F19801194B96
:104F1C00D3F8AC21184B00930123FDF77BFE25E061
:104F2C000F2001F025FE134B93F8A801114BD3F879
:104F3C00783103F175010F4BD3F8AC210E4B009374
:104F4C000123FDF767FE11E001F0C0FF0EE09DF8B4
:104F5C0025309AB2074BDB88009313462D2209218A
:104F6C000120FCF731FC01F0B1FF00BF0AB010BD0D
:104F7C0050170020741500201542000000B585B0B4
:104F8C00052001F0F5FD244B93F8A801224BD3F832
:104F9C00783103F1A501204BD3F8AC211F4B0093C2
:104FAC000123FDF737FE1C4BD3F8683119461C481A
:104FBC000DF026FF184B93F8B930002B08D0184889
:104FCC00FEF7CAFF0346002B02D001F07FFF20E062
:104FDC00134B0393104B93F880311846FBF786FD67
:104FEC000D4B9B690C4AB2F91C2092B21146184623
:104FFC00FBF7C8FDFBF7F6FDFBF7AAFF0346064AD5
:10500C00C2F89831044B012283F8A021062001F04C
:10501C00AFFD05B05DF804FB7415002015420000CF
:10502C008815002000B583B0094B93F864319AB20F
:10503C00074BDB8800931346372209210220FCF72B
:10504C00C3FB01F043FF00BF03B05DF804FB00BFDE
:10505C007415002000B583B0072001F089FD0B4BBF
:10506C0093F8A801094BD3F8783103F1D101074B20
:10507C00D3F8AC21064B00930123FDF7CBFDFBF7D6
:10508C00CFFD00BF03B05DF804FB00BF741500201A
:10509C001542000000B583B0094B93F864319AB205
:1050AC00074BDB88009313463C2209210220FCF7B6
:1050BC008BFB01F00BFF00BF03B05DF804FB00BFDE
:1050CC007415002000B585B00390082001F050FD48
:1050DC00134B93F8A801124BB3F8A6311946104B99
:1050EC00D3F8AC210F4B00930123FDF793FD0C4A31
:1050FC00039BC2F878310A4B93F8A801084BD3F8FC
:10510C00783103F1A601064BD3F8AC21064B009382
:10511C000123FDF77FFD00BF05B05DF804FB00BF68
:10512C0074150020854100001542000000B583B0C5
:10513C00094B93F864319AB2074BDB880093134602
:10514C003B2209210220FCF73FFB01F0BFFE00BF10
:10515C0003B05DF804FB00BF7415002000B587B0E8
:10516C000390092001F004FD2E4B93F8A8012D4B60
:10517C00B3F8A63119462B4BD3F8AC212A4B00932C
:10518C000123FDF747FDFBF7DFFCFBF7E1FE0246D1
:10519C00244BD3F89831D21A224BD3F89C311344B8
:1051AC00204AC2F89C311F4A039BC2F878311D4B30
:1051BC00D3F868313D3318460DF092FB0346012BB2
:1051CC0003D100238DF8173002E001238DF817303E
:1051DC009DF81730012B10D1124B93F8A801114BED
:1051EC00D3F8783103F194010E4BD3F8AC210F4B6B
:1051FC0000930123FDF70EFD10E0012109480AF090
:10520C006DF8084BD3F868310021184601F0CAFB41
:10521C00044B0022C3F8682101F058FE00BF07B010
:10522C005DF804FB74150020854100001542000058
:10523C0000B583B00A2001F09BFC144B93F8A80135
:10524C00124BD3F8783103F1A101104BD3F8AC21F8
:10525C000F4B00930123FDF7DDFC0C4B93F88031D1
:10526C001846FBF743FCFBF7E7FCFBF771FE034624
:10527C00064AC2F89831054B012283F8A0210B2075
:10528C0001F076FC00BF03B05DF804FB7415002040
:10529C001542000000B583B0094B93F864319AB203
:1052AC00074BDB8800931346382209210220FCF7B8
:1052BC008BFA01F00BFE00BF03B05DF804FB00BFDE
:1052CC007415002000B583B00C2001F051FCFBF7E5
:1052DC00D1FC0A4B93F8A801084BD3F8783103F1B1
:1052EC00CF01064BD3F8AC21054B00930123FDF7FE
:1052FC0091FC00BF03B05DF804FB00BF74150020E7
:10530C001542000008B51C48FCF706FE00211B489E
:10531C0009F0E4FF194BD3F8683193F85020013AA7
:10532C00D2B283F85020154BD3F8683193F8503033
:10533C0019461348FCF7F0FD104BD3F8683193F87D
:10534C005030002B0AD10F48FCF7D4FA0B4BD3F892
:10535C0068310121184601F025FB04E0074BD3F816
:10536C0068310A225A70054B0022C3F8682101F0FB
:10537C00ADFD00BF08BD00BF503D010074150020FD
:10538C00743D0100843D010000B585B003900D20F3
:10539C0001F0EEFB134B93F8A801124BB3F8A631B6
:1053AC001946104BD3F8AC210F4B00930123FDF79A
:1053BC0031FC0C4A039BC2F878310A4B93F8A801D4
:1053CC00084BD3F8783103F16401064BD3F8AC21C8
:1053DC00064B00930123FDF71DFC00BF05B05DF8E3
:1053EC0004FB00BF7415002085410000154200002D
:1053FC0000B583B0094B93F864319AB2074BDB8844
:10540C00009313463E2209210220FCF7DDF901F03E
:10541C005DFD00BF03B05DF804FB00BF74150020F8
:10542C0030B595B003900E2001F0A2FB8B4B93F896
:10543C00A8018A4BB3F8A6311946884BD3F8AC2196
:10544C00874B00930123FDF7E5FBFBF77DFBFBF797
:10545C007FFD0246814BD3F89831D21A7F4BD3F89B
:10546C009C3113447D4AC2F89C317C4A039BC2F8A0
:10547C00783109200CF05CFD0346784AC2F874318F
:10548C00764BD3F87431002B0AD100230093002300
:10549C00462209210220FCF797F901F017FDDAE00A
:1054AC006E4BD3F8743109221A706C4BD3F87431EB
:1054BC0009225A70694BD3F87421684BD3F87431B4
:1054CC00C5325A60654BD3F874315868634BD3F8C6
:1054DC00743103F10801614BD3F8743103F1C10449
:1054EC005E4BD3F87431C2335C4AD2F87421C332A8
:1054FC000192009323468222FBF7CEFB574BD3F845
:10550C007431B3F90830812B0DDD544BD3F8743161
:10551C00B3F908309BB200930123402209210220E9
:10552C00FCF752F98BE04D4BD3F8743193F8C33040
:10553C00002B7BD0494BD3F8743104AA1146184682
:10554C00FEF7C8F99DF81030002B71D0434BD3F8FF
:10555C0074319DF8122083F84E20404BD3F87431EF
:10556C009DF8192083F84F203C4BD3F874313D3310
:10557C001A460DF13D031D685C689868D968156082
:10558C0054609060D1601B7C1374344BD3F874312D
:10559C0004AA11461846FEF7F1FC0346002B49D02D
:1055AC002E4BD3F8743193F8A530002B08D02B4B2D
:1055BC00D3F874311846FEF7D5FC0346002B3BD1CB
:1055CC009DF811309BB2194626480DF07CFB234BFD
:1055DC00D3F8682104AB1146184600F0B7FC03461B
:1055EC00002B2BD00CF042FA0346002B0ED11B4B98
:1055FC00D3F874313D331846FAF720FF0346002BDD
:10560C0004D0BDF94E30184601F068F90121134859
:10561C0009F064FE114BD3F868310021184601F0F3
:10562C00C1F90E4B0022C3F8682108E000BF06E068
:10563C0000BF04E000BF02E000BF00E000BF074B6A
:10564C00D3F8743118460CF0D7FC044B0022C3F885
:10565C00742101F03BFC15B030BD00BF7415002067
:10566C0085410000E816002000B583B0102001F041
:10567C007FFA144B93F8A801124BD3F8783103F14D
:10568C008201104BD3F8AC210F4B00930123FDF793
:10569C00C1FA0C4B93F880311846FBF727FAFBF74D
:1056AC00CBFAFBF755FC0346064AC2F89831054B7A
:1056BC00012283F8A021112001F05AFA00BF03B097
:1056CC005DF804FB741500201542000000B583B092
:1056DC00094B93F864319AB2074BDB88009313465D
:1056EC00392209210220FCF76FF801F0EFFB00BF13
:1056FC0003B05DF804FB00BF7415002000B583B047
:10570C00122001F035FAFBF7B5FA0A4B93F8A80111
:10571C00084BD3F8783103F1D801064BD3F8AC2100
:10572C00054B00930123FDF775FA00BF03B05DF83C
:10573C0004FB00BF741500201542000008B501F0F1
:10574C00C5FB00BF08BD000000B585B00390132059
:10575C0001F00EFA154B93F8A801144BB3F8A631CF
:10576C001946124BD3F8AC21114B00930123FDF7D2
:10577C0051FA0E4A039BC2F878310C4A039BC2F8CB
:10578C007C310A4B93F8A801084BD3F8783103F11C
:10579C00A601064BD3F8AC21064B00930123FDF771
:1057AC0039FA00BF05B05DF804FB00BF741500208A
:1057BC00854100001542000000B583B0094B93F8F9
:1057CC0064319AB2074BDB88009313463B220921C4
:1057DC000220FBF7F9FF01F079FB00BF03B05DF885
:1057EC0004FB00BF7415002030B59FB0039000235C
:1057FC00ADF83630142001F0BBF9B34B93F8A80187
:10580C00B14BB3F8A6311946AF4BD3F8AC21AF4B23
:10581C0000930123FDF7FEF9FBF796F9FBF798FBD4
:10582C000246A94BD3F89831D21AA74BD3F89C3126
:10583C001344A54AC2F89C3109200CF079FB0346AD
:10584C00A14AC2F86C31A04BD3F86C31002B0AD1B1
:10585C00002300930023462209210220FBF7B4FF0A
:10586C0001F034FB78E1984BD3F86C3109221A70B3
:10587C00954BD3F86C3109225A70934BD3F86C21A9
:10588C00914BD3F86C31C5325A608F4BD3F86C31D5
:10589C0058688D4BD3F86C3103F108018A4BD3F85F
:1058AC006C3103F1C104884BD3F86C31C233864A96
:1058BC00D2F86C21C3320192009323468222FBF76B
:1058CC00EBF9814BD3F86C31B3F9083019468048A9
:1058DC00FCF710F87C4BD3F86C31B3F90830812B02
:1058EC000DDD794BD3F86C31B3F908309BB2022241
:1058FC000092402209210220FBF766FF20E1724B47
:10590C00D3F86C3193F8C330002B00F00E816E4B42
:10591C00D3F86C310EAA11461846FDF7DBFF9DF843
:10592C003830002B00F00381674BD3F86C319DF8B5
:10593C003A2083F84E20644BD3F86C319DF841200B
:10594C0083F84F20604BD3F86C319DF83F2083F8DF
:10595C009D205D4BD3F86C313D331A460DF1650338
:10596C001D685C689868D968156054609060D16057
:10597C001B7C1374544BD3F86C310EAA1146184689
:10598C00FEF7FCFA0346002B00F0D3804E4BD3F805
:10599C006C3193F8A530002B20D0FEF7C1FA0346EA
:1059AC00002B09D0484BD3F86C311846FEF7DAFAC5
:1059BC000346002B12D0C3E0434BD3F86C3193F861
:1059CC004E30002B40F0B7803F4BD3F86C3193F83E
:1059DC00B9309BB219463F480DF0E7F99DF83930C4
:1059EC009BB219463B480DF06EF99DF83A30002BEE
:1059FC001DD19DF83F30012B19D104200CF070F80B
:105A0C0002460EAB0B33114618460CF0B6FF03469C
:105A1C00002B0CD02C4BD3F86C310DF13602114607
:105A2C001846FFF72DF80346002B00F08680BDF8D2
:105A3C003630194627480DF046F9234A039BC2F825
:105A4C0078310EAB184600F04DFA0346002B76D099
:105A5C0004AB1846FAF7D4FC0346002B0DD004AA6D
:105A6C000EAB2D33114618460CF087FF0346002B66
:105A7C0003D0154B0122C3F8B421134BD3F87C315E
:105A8C009BB2C3F1AD039AB20F4BD3F86C3112B287
:105A9C00A3F8A2209DF83D30012B1FD10A4B93F89F
:105AAC00A131012B1AD1084B93F8A801064BD3F85E
:105ABC00783103F1A301044BD3F8AC21064B0093CE
:105ACC000123FDF7A7F847E074150020854100007D
